:020000020000FC
:0C0000000C9400010C94CE020C940F0331
:100200000FEF0DBF08E00EBFA0E0B3E0F89443E0AD
:100210004DBB4FE040936900399A3A9A3B9A529805
:100220005398DD27CC271CE3012E1124DD2466D052
:10023000DED0FF27EE27F0C32F933F930F930FB726
:100240000F9322E83EED3A95F1F72A95E1F7000089
:100250000F910FBF0F913F912F9108950F930FB7FB
:100260000F9301E0429A43980ED0E6DF4298439AFA
:100270000AD0E2DF0A95B1F74198429843980F916E
:100280000FB70F910895419B01C002C0419A089594
:10029000419808950F931F932F9308E0559A279A3A
:1002A0002F981CD0132F11703695103019F45D98CB
:1002B00015D002C05D9A12D02F9A10D00A95003046
:1002C00079F72F980BD02F9A09D05D9B5D9806D0B7
:1002D0002F9804D02F911F910F9108954F9340E1D3
:1002E0004A95F1F74F9108955D98F8DF08955D986C
:1002F0003DD22F9AF3DF5D9AF1DF08950F931F939C
:100300002F933F934F930FB70F9300271127222767
:1003100044270D2F003059F00A9513951A30D1F764
:10032000239511272A30B1F743952227F3CF34E4E0
:10033000DBDFB0DFDCDF38ECD7DFACDF332726D202
:10034000A9DFD5DF39ECD0DFA5DF342F1FD2A2DF44
:10035000CEDF3AECC9DF9EDF322F18D29BDFC7DF3A
:100360003BECC2DF97DF312F11D294DFC0DF3AE8D8
:10037000BBDF90DFBCDF0F910FBF4F913F912F91FB
:100380001F910F9108950F931F932F9308E0389AB0
:100390003A9A42981CD0132F11703695103019F4E8
:1003A000409815D002C0409A12D0429A10D00A95B7
:1003B000003079F742980BD0429A09D0409B409880
:1003C00006D0429804D02F911F910F9108954F931A
:1003D00040E14A95F1F74F9108954098F8DF08956C
:1003E0004098C4D1429AF3DF409AF1DF08950F9309
:1003F0001F932F933F934F930FB70F93002711270E
:10040000222744270C2F003059F00A9513951A30F3
:10041000D1F7239511272A30B1F743952227F3CF3F
:1004200034E4DBDFB0DFDCDF38ECD7DFACDF3327F1
:10043000ADD1A9DFD5DF39ECD0DFA5DF342FA6D1D0
:10044000A2DFCEDF3AECC9DF9EDF322F9FD19BDFE8
:10045000C7DF3BECC2DF97DF312F98D194DFC0DFDD
:100460003AE8BBDF90DFBCDF0F910FBF4F913F91A8
:100470002F911F910F9108950F930FB70F937F93B3
:100480008F936F930027662777278827503061F076
:100490005A9563956A30D1F7739566277A30B1F72C
:1004A00083957727893091F7062F11D0009350025A
:1004B000072F0DD000935102082F09D0009352024C
:1004C0006F918F917F910F910FBF0F910895003021
:1004D00091F0013091F0023091F0033091F004304E
:1004E00091F0053091F0063091F0073091F008302E
:1004F00091F0093091F000E3089501E3089502E3DB
:10050000089503E3089504E3089505E3089506E3D9
:10051000089507E3089508E3089509E30895CF9344
:10052000DF930F921F921F931FB71F931AE01D9323
:100530001DE01D935D2FA0DFD0915202DD93D0917D
:100540005102DD93D0915002DD931CE21D935C2F8C
:1005500093DFC0915202CD93C0915102CD93C091CF
:100560005002CD931CE21D93512D86DF1091510254
:100570001D93109150021D931CE21D93502D7CDFA2
:10058000109151021D93109150021D931F911FBF96
:100590001F911F900F90DF91CF9108950F930FB788
:1005A0000F931F931F2F1E1B113034F057DED3956E
:1005B000D395A4DEB4DFEF2F1F910F910FBF0F91E2
:1005C00018952F933F930F930FB70F9322E83EEDAB
:1005D0003A95F1F72A95E1F700000F910FBF0F91BF
:1005E0003F912F9108950F930FB70F9301E0429A17
:1005F00043980ED021DE4298439A0AD01DDE0A9518
:10060000B1F74198429843980F910FB70F91089511
:10061000419B3CCE3DCE419A0895419808950F9359
:100620000FB70F932F932F2F291B213034F0DBDFCF
:10063000C395C395DCDE73DF9F2F2F910F910FBF02
:100640000F9118952F931F930F930FB70F9310E0EF
:100650000CE01093C5000093C40022E02093C0007A
:1006600008E10093C1000EE00093C2000F910FBF9C
:100670000F911F912F9108951F930F930FB70F9311
:10068000B3E0A0E00D911091C00015FFF5CF0093ED
:10069000C6000E941C010430A9F70F910FBF0F91F3
:1006A0001F9108953F932F931F930F930FB70F93AD
:1006B0001091C00017FF23C00091C60026E7201745
:1006C00051F02CE6201759F023E6201761F02BE6B5
:1006D000201779F014C0C39522DF89DE10C0D395AE
:1006E0001EDF0CDE0CC0C03051F0CA9518DF7FDE73
:1006F00006C0D03021F0DA9512DF00DE00C00F9185
:100700000FBF0F911F912F913F9108952F930F933A
:100710000FB70F9322E42A95F1F70F910FBF0F91B6
:100720002F9108950F931F932F9308E0579A569A8D
:100730005E981CD0132F11703695103019F45F9805
:1007400015D002C05F9A12D05E9A10D00A95003080
:1007500079F75E980BD05E9A09D05F9B5F9806D0C0
:100760005E9804D02F911F910F9108954F9340E10F
:100770004A95F1F74F9108955F98F8DF08955F98D3
:10078000F5DF5E9AF3DF5F9AF1DF0895393091F07B
:10079000383091F0373091F0363091F0353091F0BB
:1007A000343091F0333091F0323091F0313091F0BB
:1007B000303091F03FE608953FE7089537E008951F
:1007C0003DE708953DE6089536E608953FE408952F
:1007D0003BE5089536E008953FE308953F932F9356
:1007E0001F930F930FB70F9307D00F910FBF0F9168
:1007F0001F912F913F9108951091C00017FFFCCFDA
:100800001091C600103391F0113399F01233A1F01A
:100810001333A9F01433B1F01533B9F01633C1F026
:100820001733C9F01833D1F0E7CF089500E0D02E88
:10083000FCCF04E0D02EF9CF09E0D02EF6CF0EE0A9
:10084000D02EF3CF03E1D02EF0CF08E1D02EEDCFA4
:100850000DE1D02EEACF02E2D02EE7CF07E2D02E74
:10086000E4CF1F920F920F931F932F932FB72F93C5
:100870000CE3001911272227003051F00A95139537
:100880001A30D1F7239511272630B1F72227F4CF5C
:10089000612E722E112722270D2D0119112401140A
:1008A00009F40395003039F00A9513951A30D1F701
:1008B00023951127F7CF812E922E34E45DDF32DFAE
:1008C0005EDF38EC59DF2EDF392D60DF2BDF57DF9D
:1008D00039EC52DF27DF382D59DF306823DF4FDF57
:1008E0003AEC4ADF1FDF372D51DF1CDF48DF3BECDE
:1008F00043DF18DF362D4ADF15DF41DF3AE83CDF02
:1009000011DF3DDF2F912FBF2F911F910F910F907E
:100910001F9008954F934FB74F9347E24093850040
:1009200040E14093840040E04093800042E04093E7
:100930008100B09A46B340FFFDCFB09A40E04093AB
:100940008100409380001F930F93ACDEF3950F91CD
:100950001F914F914FBF4F9108950F931F930F9287
:100960001F920FB70F93002411240CE31D2D0E943A
:100970008A040E948A0475DF03940016C1F700C040
:1009800000241394139511150F930FB70F931A9515
:100990000F910FBF0F9159F7139563DF1A950F93BE
:1009A00004E00C930F910F910FBF1F900F901F91B8
:1009B0000F91F89408951F920F920F931F932F9306
:1009C0002FB72F9300E434E4D7DEACDED8DE38EC6A
:1009D000D3DEA8DE302FA6DED2DE39ECCDDEA2DEFD
:1009E000302F30689FDECBDE3AECC6DE9BDE302F48
:1009F00099DEC5DE3BECC0DE95DE302F93DEBFDE38
:100A00003AE8BADE8FDEBBDE2F912FBF2F911F9108
:100A10000F910F901F900895CEDF14DE0F9301E029
:100A2000D02E0F91789499DFF89426DEF8941091E7
:100A3000C00017FFFBCF0091C60022E7201709F086
:060A4000F5CF0C9400014B
:00000001FF
